:100D79002020205246494420424153454420202006
:100D890000202020415454454E44414E43452020E3
:100D99002000504C41434520594F55522043415260
:100DA900443A00594F5552204944204E4F2E20496C
:100DB900533A003136303036364135454333390000
:100DC90020415454454E44414E434520002052454C
:100DD9004749535445524544002053747564656E20
:100DE900743120004174746E642E204E6F2E3A20A7
:100DF90000256400313630303636424437414237B7
:100E09000020417474656E64616E63652000205230
:100E190065676973746572656400205374756465E8
:100E29006E74322000313630303636323033303657
:100E390030002053747564656E74332000496E76F2
:0A0E4900616C69642043617264006B
:0310C900013000F3
:06100A00D2927F057E007A
:10101000E4FDFCC3ED9FEE6480F8EC64809850150D
:10102000E4FBFA0BBB00010ABA04F8BBFBF50DBDEB
:0510300000010C80DE50
:011035002298
:0A10B700D290C29112100AC29222D8
:10108D00A907E954F0F5901210B7E9C454F0F590A2
:03109D000210B787
:0810C100C29012100AC2922233
:09105D007FC87E001210107F0113
:10106600A907E954F0F5901210C1E9C454F0F590BF
:031076000210C1A4
:0B0FDC007FC01210667BFF7A0D79EDDC
:100FE7008B088A09890AAB08AA09A90A120E53FFB6
:100FF700601012108D7401250AF50AE43509F50908
:0310070080E42260
:101079007F021210667F281210667F0E1210667F9B
:0410890001021066EA
:0C10A000758920759850758DFDD28E2248
:0B10AC003098FD859930C298AF3022CB
:100B5C00D2A61210A01210797BFF7A0D7979120FA0
:100B6C00E77FC01210667BFF7A0D798A120FE77F40
:100B7C00907E011210107F011210667BFF7A0D79A6
:100B8C009B120FE77FC0121066E4F569F569AF6937
:100B9C00EF3395E0FEC3EF940CEE64809480500E1E
:100BAC001210AC74232569F8A607056980E074233C
:100BBC002569F8E4F67F011210667BFF7A0D79AC9B
:100BCC00120FE77FC0121066E4F569AF69EF339539
:100BDC00E0FEC3EF940CEE64809480500D74232FD0
:100BEC00F8E6FF12108D056980E17F647E0012101B
:100BFC0010750BFF750C0D750DBC750E00750F0C7B
:100C0C007B007A007923120F6DEF3395E04F70451E
:100C1C000532E532700205317F011210667BFF7AD6
:100C2C000D79C9120FE77FC01210667BFF7A0D7920
:100C3C00D6120FE712105D7BFF7A0D79E2120FE7E7
:100C4C00120FDC750BFF750C0D750DFA85310E85C9
:100C5C00320F020D25750BFF750C0D750DFD750E04
:100C6C0000750F0C7B007A007923120F6DEF339512
:100C7C00E04F70440534E534700205337F011210E7
:100C8C00667BFF7A0E790A120FE77FC01210667B23
:100C9C00FF7A0E7917120FE712105D7BFF7A0E792F
:100CAC0023120FE7120FDC750BFF750C0D750DFA87
:100CBC0085330E85340F8061750BFF750C0E750D29
:100CCC002E750E00750F0C7B007A007923120F6DB8
:100CDC00EF3395E04F707A0536E536700205357FB7
:100CEC00011210667BFF7A0E790A120FE77FC01291
:100CFC0010667BFF7A0E7917120FE712105D7BFFDF
:100D0C007A0E793B120FE7120FDC750BFF750C0D89
:100D1C00750DFA85350E85360F7B007A0079221217
:100D2C00085C7B007A007922120FE7D2A4C2A57F5F
:100D3C002C7E01121010C2A4C2A57FC81E12101066
:100D4C00C2A4D2A57F2C0E121010C2A4C2A5020BF5
:100D5C00827F011210667BFF7A0E7946120FE7C272
:0D0D6C00A67F2C7E01121010D2A6020B8271
:03000000020EE10C
:0C0EE100787FE4F6D8FD758169020F28C7
:100E5300BB010689828A83E0225002E722BBFE029D
:090E6300E32289828A83E49322D0
:10080000E517240BF8E60517227808300702780B65
:10081000E475F001120EAB020E532000EB7F2ED2D6
:10082000008018EF540F2490D43440D4FF30040BD0
:10083000EF24BFB41A0050032461FFE518600215CD
:1008400018051BE51B7002051A30070D7808E475C2
:10085000F001120EABEF020E990210367403D207AC
:100860008003E4C207F5178B088A09890AE4F518A2
:10087000F51AF51BE51860077F2012083B80F57517
:1008800019FFC201C200C202C203C205C206C208E9
:10089000120809FF700D3007057F0012084CAF1BCE
:1008A000AE1A22B4255FC2D5C204120809FF24D0B3
:1008B000B40A00501A75F00A781830D50508B6FF4A
:1008C0000106C6A426F620D5047002D20380D924DE
:1008D000CFB41A00EF5004C2E5D204020A4CD20190
:1008E00080C6D20080C0D20280BCD2D580BAD205E8
:1008F00080B47F2012083B2002077401B518004025
:10090000F1120800FF12083B020874D208D20680D8
:1009100095120800FB120800FA120800F94A4B7001
:1009200006791D7A0B7BFF20022EE518602A7E00D7
:100930008E82758300120E6C60060EEE651970F0E3
:10094000C2D5EBC0E0EAC0E0E9C0E0EE120A93D005
:10095000E0F9D0E0FAD0E0FB120E53FF60AAEBC042
:10096000E0EAC0E0E9C0E012083BD0E02401F9D0A1
:10097000E03400FAD0E0FBE5190460DCD519D98039
:10098000877BFF7A0A798FD202809C791080027966
:1009900008C206C2088008D2D5790A8004790AC242
:1009A000D5E519047002F519E4FAFDFEFF120800FE
:1009B000FC7B08200113120800FD7B1030000A1296
:1009C0000800FE120800FF7B20EC3382D592D55040
:1009D00013C3E43000069FFFE49EFEE42001039D64
:1009E000FDE49CFCE4CBF8C201EC700CCFCECDCC86
:1009F000E824F8F870F38017C3EF33FFEE33FEED11
:100A000033FDEC33FCEB33FB994002FB0FD8E9EBF1
:100A1000300105F8D0E0C448B201C0E00AEC4D4E08
:100A20004F78207B0070C2EAB5190040BCC0E012CC
:100A30000A95D0F0D0E0200104C4C0E0C4B201C0E7
:100A4000F0120824D0F0D5F0EB020874120EBB09A6
:100A50001153098B5808E24C08DE42098F4F099761
:0F0A60004409974908F743099D550981460981C3
:100A6F00450981470B3D5008E62D08EA2E090D2B4D
:100A7F0008EE23090B200B262A08A64800000905BB
:100A8F003F3F3F00790AA2D5200314300509B91062
:100A9F00020404B9080104A2D52006025001042063
:100AAF0002689202B518005034C0E07F203003195D
:100ABF007F30A20272067205500F120AECC202C2F8
:100ACF0006C205C2087F30800F300503E9C0E0126F
:100ADF00083B300503D0E0F9D0E0B518CC3005174E
:100AEF007F30B9100C12083B7F583004077F788095
:100AFF0003B9080312083B3002057F2D02083B7F24
:100B0F00202008F87F2B2006F322920280CF286E38
:100B1F00756C6C2900D2011208003001F8C20178FF
:100B2F001830D50108F60208A62D5043495812086F
:100B3F00002403B405004001E4900B389312082CF5
:0D0B4F00743A12082CD20375180402098BA9
:100F6D008B088A09890AAB0BAA0CA90D120E53FE28
:100F7D00AB08AA09A90A120E53FF6E702BEF600D74
:100F8D00E50F150F7002150E14450E70037F00222C
:100F9D007401250AF50AE43509F5097401250DF5E5
:100FAD000DE4350CF50C80BEAB08AA09A90A120E8A
:100FBD0053FDD3EE6480F8ED64809840037F0122E9
:0F0FCD00AB0BAA0CA90D120E53FFC3ED9FFF2211
:100EED00020B5CE493A3F8E493A34003F68001F2B4
:100EFD0008DFF48029E493A3F85407240CC8C33306
:100F0D00C4540F4420C8834004F456800146F6DFD4
:100F1D00E4800B01020408102040809010C9E47E8B
:100F2D00019360BCA3FF543F30E509541FFEE493C9
:100F3D00A360010ECF54C025E060A840B8E493A390
:100F4D00FAE493A3F8E493A3C8C582C8CAC583CABB
:100F5D00F0A3C8C582C8CAC583CADFE9DEE780BE73
:0110CC000023
:100E6C00BB010CE58229F582E5833AF583E022503B
:100E7C0006E92582F8E622BBFE06E92582F8E22285
:0D0E8C00E58229F582E5833AF583E493229F
:100E9900BB010689828A83F0225002F722BBFE0138
:020EA900F32232
:100EAB00FAE6FB0808E6F925F0F618E6CA3AF62248
:100EBB00D083D082F8E4937012740193700DA3A3C6
:100ECB0093F8740193F5828883E4737402936860DA
:060EDB00EFA3A3A380DFDA
:10103600EFB40A07740D121041740A309811A8997A
:10104600B8130CC2983098FDA899C298B811F6301A
:0710560099FDC299F59922F2
:00000001FF
